:070BD9007590E075B0F322F6
:100AB000E58954F0FFEF4401F589C2A9755900E5B5
:100AC00059C394C85011758CEE758A00D28C308D44
:090AD000FDC28D055980E8C28CBD
:010AD90022FA
:100B7B00E58954F0FFEF4401F589C2A9758CFF7527
:0C0B8B008AD2D28C308DFDC28DC28C222B
:100B9700E58954F0FFEF4401F589C2A9758CF87512
:0C0BA7008ACDD28C308DFDC28DC28C2214
:100B1E00C2B3D2B2C290C291C292C293C2B200D23A
:0F0B2E00B2C290D291D292C293C2B2120B7B226A
:100B3D00C2B3D2B2C290C291D292C293C2B200D20B
:0F0B4D00B2D290C291C292C293C2B2120B7B225B
:100ADA00C2B3D2B2C290C291C292C293C2B200D27F
:100AEA00B2C290C291C292D293C2B2120B97120BA7
:020AFA00972241
:100B5C00C2B3D2B2C290C291C292C293C2B200D2FC
:0F0B6C00B2D290D291D292D293C2B2120B7B220C
:100BB300120BD9538FFE120AB0120B3D120B5C12AB
:0B0BC3000ADA120B1E120B97D29422CC
:1009EB008F5AD2B3D2B2E55AC41313135401FFEF8B
:1009FB00139290E55AC413135403FFEF139291E52E
:100A0B005AC4135407FFEF139292E55AC4540FFFC5
:100A1B00EF139293C2B200D2B2E55A131313541FC1
:100A2B00FFEF139290E55A1313543FFFEF1392917C
:100A3B00E55AC313FFEF139292E55A139293C2B286
:040A4B00120B7B22ED
:060A4F008B478A4889492B
:100A5500754A00AB47AA48A949AF4A8F82758300FA
:100A6500120895FFEF6018AB47AA48A949AF4A8F0E
:0F0A750082758300120895FF1209EB054A80D4A1
:010A8400224F
:100AFC00C2B3D2B2D290D291C292C293C2B200D23D
:100B0C00B2C290C291C292C293C2B2120B97120B94
:020B1C0097221E
:070BE0007580FF75A00022E3
:030BFF00D2AF2250
:030C0200C2AF225C
:1008FE005A41555A45544F0030202F203135003182
:10090E00202F2031350032202F2031350033202F7B
:10091E002031350034202F2031350035202F203165
:10092E00350036202F2031350037202F203135006D
:10093E0038202F2031350039202F2031350031302D
:10094E00202F203135003132202F20313500313328
:10095E00202F203135003134202F203135004345F2
:0D096E004B415449003135202F2031350018
:10097B000144000146000143000141000145000113
:02098B00420028
:060BE7008544460544228E
:060BED0085444615442278
:10034500755B00120BE0120BFF7556FD7B1C7D8063
:100355007F50120A85120C0B7552197B197D017F8E
:1003650020120003120C05120BB3E5446546700319
:1003750002049B120ADAE544C3940F400302047E8B
:10038500E544C39400500302047E7BFF7A0879FE9E
:10039500120A4F120AFCE5441208D803D10003DD06
:1003A5000103E90203F503040104040D050419061C
:1003B500042407042F08043A0904450A04500B04D1
:1003C5005B0C04660D04710E000004987BFF7A092E
:1003D5007906120A4F0204987BFF7A09790D120AF1
:1003E5004F0204987BFF7A097914120A4F02049888
:1003F5007BFF7A09791B120A4F0204987BFF7A0961
:100405007922120A4F0204987BFF7A097929120A88
:100415004F0204987BFF7A097930120A4F80747B6A
:10042500FF7A097937120A4F80697BFF7A09793E8D
:10043500120A4F805E7BFF7A097945120A4F805375
:100445007BFF7A09794C120A4F80487BFF7A09793C
:1004550054120A4F803D7BFF7A097954120A4F8066
:10046500327BFF7A09795C120A4F80277BFF7A0974
:100475007964120A4F801C801AE544B40F157BFF7E
:100485007A09796C120A4F120AFC7BFF7A09797393
:10049500120A4F854446E55B1208D804B0000508EA
:1004A500010532020545030000036F120BFB308086
:1004B5000630810302036FA280308101B34003023D
:1004C500036F20801CE544C3940F500C755B01122B
:1004D500001E120BE702036F755B00120BFB020394
:1004E5006F30810302036FE544D39400400C755BC4
:1004F5000112001E120BED02036F755B00120BFB60
:1005050002036F20800F20810C755B03120BF385AE
:10051500464402036F30820302036F755B02753236
:1005250000753F00754000120BF702036FE532704E
:100535000302036F753200755B03120BF302036F41
:1005450030830302036F20800B208108755B001246
:100555000BFB8019308003208110A280308101B30C
:100565005008755B0112001E8003755B00120BFBC2
:0605750002036F02036F98
:01057B00225D
:0C098D00014B01014C02014D40014E8065
:04001E00854BA0224C
:040BF300854CA0226B
:040BF700854DA02266
:040BFB00854EA02261
:10099900023F0000013200012B00012A00023D0044
:1009A90000012C01013401013300013901012D013C
:1009B900013501013000013A01012E010137010120
:1009C9003600013B01012F01013801013100013CD1
:0109D900011C
:100003008F4F8D508B51854F89E55024FF92AB85DF
:06001300518D85528B2285
:030C0500D28E226A
:030C0800C28E2277
:0B0BCE008F578D5885578D85588B225E
:03001B000206FEDC
:1006FE00C0E0C0F0C083C082C0D075D000C000C0C2
:10070E0001C002C003C004C005C006C007A280E439
:10071E0033FF8F2CE52CB5340C0533E533B41408B8
:10072E00852C398003753300A281E433FF8F2DE5CC
:10073E002DB5350C0530E530B41408852D3A8003FF
:10074E00753000A282E433FF8F2EE52EB5370C05EF
:10075E0036E536B41408852E3B8003753600A28329
:10076E00E433FF8F2FE52FB5380C0531E531B41486
:10077E0008852F3C80037531000540E54070020569
:10078E003FE540B42010E53FB44E0B753F00754079
:10079E00007532018025053EE53E7002053DFFAE37
:1007AE003DE4FCFD7B607AEA79007800C31208C252
:1007BE007009752A01753D00753E00852C34852D16
:1007CE0035852E37852F38D007D006D005D004D0EA
:1007DE0003D002D001D000D0D0D082D083D0F0D0C0
:0207EE00E032F7
:10057C004F4B0A00477265736B610A005A61757ABA
:10058C0065746F2030202F203135206D65737461B8
:10059C000A005A61757A65746F2031202F2031352D
:1005AC00206D657374610A005A61757A65746F20E9
:1005BC0032202F203135206D657374610A005A6129
:1005CC00757A65746F2033202F203135206D65735B
:1005DC0074610A00205A61757A65746F2034202F7B
:1005EC00203135206D657374610A005A61757A6526
:1005FC00746F2035202F203135206D657374610A9E
:10060C00005A61757A65746F2036202F20313520A1
:10061C006D657374610A005A61757A65746F203761
:10062C00202F203135206D657374610A005A617575
:10063C007A65746F2038202F203135206D657374E6
:10064C00610A005A61757A65746F2039202F203148
:10065C0035206D657374610A005A61757A65746F23
:10066C00203130202F203135206D657374610A00E4
:10067C005A61757A65746F203131202F2031352005
:10068C006D657374610A005A61757A65746F2031F7
:10069C0032202F203135206D657374610A005A6148
:1006AC00757A65746F203133202F203135206D65BC
:1006BC007374610A005A61757A65746F2031342045
:1006CC002F203135206D657374610A005A61757A7B
:1006DC0065746F203135202F203135206D65737492
:1006EC00610A00475245534B410A005241444E4F58
:0206FC000A00F2
:1009DA00011200030CFF057C0309FF0580010800D2
:03002300020026B2
:10002600C0E0C083C082C0D075D000C000C001C08F
:1000360002C003C007309926C29974012529F52903
:10004600E43528F528AB27AA28A92912087CFFEF52
:10005600600CAB27AA28A92912087CFF8F99209843
:04006600030203325C
:10006A0085995CC298E55CB42806751200020320E3
:10007A00E55C64296003020320E513642860030237
:10008A0002BEE514644260030202BEE515645260D2
:10009A00030202BEE516644F60030202BEE517645E
:1000AA004A60030202BEE544D3940F40030202A44D
:1000BA00E5441208D800F300010E010129020144A7
:1000CA0003015F04017A0501950601B00701CB0817
:1000DA0001E60902010A021C0B02370C02520D0248
:1000EA006D0E02880F000003207BFF7A0579888B4A
:1000FA00278A288929AB27AA28A92912087CFF8FD1
:10010A00990203207BFF7A05799E8B278A28892901
:10011A00AB27AA28A92912087CFF8F990203207B02
:10012A00FF7A0579B48B278A288929AB27AA28A9B7
:10013A002912087CFF8F990203207BFF7A0579CA6E
:10014A008B278A288929AB27AA28A92912087CFF84
:10015A008F990203207BFF7A0579E08B278A288909
:10016A0029AB27AA28A92912087CFF8F9902032004
:10017A007BFF7A0579F78B278A288929AB27AA2852
:10018A00A92912087CFF8F990203207BFF7A06793E
:10019A000D8B278A288929AB27AA28A92912087C26
:1001AA00FF8F990203207BFF7A0679238B278A28FF
:1001BA008929AB27AA28A92912087CFF8F9902034B
:1001CA00207BFF7A0679398B278A288929AB27AAC7
:1001DA0028A92912087CFF8F990203207BFF7A063F
:1001EA00794F8B278A288929AB27AA28A929120897
:1001FA007CFF8F990203207BFF7A0679658B278A19
:10020A00288929AB27AA28A92912087CFF8F9902D5
:10021A0003207BFF7A06797C8B278A288929AB27DA
:10022A00AA28A92912087CFF8F990203207BFF7A4A
:10023A000679938B278A288929AB27AA28A9291204
:10024A00087CFF8F990203207BFF7A0679AA8B2705
:10025A008A288929AB27AA28A92912087CFF8F99FD
:10026A000203207BFF7A0679C18B278A288929AB6A
:10027A0027AA28A92912087CFF8F990203207BFF4D
:10028A007A0679D88B278A288929AB27AA28A92907
:10029A0012087CFF8F99807E807C7BFF7A0679EF3B
:1002AA008B278A288929AB27AA28A92912087CFF23
:1002BA008F998062E5136428705CE5146453705664
:1002CA00E51564547050E5166441704AE517644EAA
:1002DA007044E518644A703EE519B44539E544C3EB
:1002EA009400401A7BFF7A0679F78B278A28892996
:1002FA00AB27AA28A92912087CFF8F9980187BFFAF
:10030A007A0679EF8B278A288929AB27AA28A9296F
:10031A0012087CFF8F99AF1274132FF8A65C05128E
:08032A00E512B4130375120083
:10033200D007D003D002D001D000D0D0D082D08359
:03034200D0E032D6
:100A85008F538D548B5553873FE55454C0FFEF4228
:100A950087539807E55354F8FFEF4298539BE0E5D9
:0B0AA50055541FFFEF429B85569A221C
:030C0B00D2AC2246
:030C0E00C2AC2253
:030000000207F004
:0C07F000787FE4F6D8FD75815C020837C4
:10087C00BB010689828A83E0225002E722BBFE027A
:09088C00E32289828A83E49322AD
:10089500BB010CE58229F582E5833AF583E0225018
:1008A50006E92582F8E622BBFE06E92582F8E22262
:0D08B500E58229F582E5833AF583E493227C
:1008C200EB9FF5F0EA9E42F0E99D42F0EC6480C8AD
:0608D20064809845F0224D
:1008D800D083D082F8E4937012740193700DA3A3AF
:1008E80093F8740193F5828883E4737402936860C3
:0608F800EFA3A3A380DFC3
:1007FC00020345E493A3F8E493A34003F68001F2CB
:10080C0008DFF48029E493A3F85407240CC8C333FD
:10081C00C4540F4420C8834004F456800146F6DFCC
:10082C00E4800B010204081020408090097BE47ED8
:10083C00019360BCA3FF543F30E509541FFEE493C1
:10084C00A360010ECF54C025E060A840B8E493A388
:10085C00FAE493A3F8E493A3C8C582C8CAC583CAB3
:10086C00F0A3C8C582C8CAC583CADFE9DEE780BE6B
:0109EA00000C
:00000001FF
